{
  "contractName": "Voting",
  "abi": [
    {
      "inputs": [
        {
          "internalType": "uint256",
          "name": "_durationInMinutes",
          "type": "uint256"
        }
      ],
      "stateMutability": "nonpayable",
      "type": "constructor"
    },
    {
      "anonymous": false,
      "inputs": [
        {
          "indexed": true,
          "internalType": "address",
          "name": "voter",
          "type": "address"
        },
        {
          "indexed": false,
          "internalType": "uint256",
          "name": "candidateId",
          "type": "uint256"
        }
      ],
      "name": "Voted",
      "type": "event"
    },
    {
      "inputs": [],
      "name": "admin",
      "outputs": [
        {
          "internalType": "address",
          "name": "",
          "type": "address"
        }
      ],
      "stateMutability": "view",
      "type": "function"
    },
    {
      "inputs": [
        {
          "internalType": "uint256",
          "name": "",
          "type": "uint256"
        }
      ],
      "name": "candidates",
      "outputs": [
        {
          "internalType": "uint256",
          "name": "id",
          "type": "uint256"
        },
        {
          "internalType": "string",
          "name": "name",
          "type": "string"
        },
        {
          "internalType": "uint256",
          "name": "voteCount",
          "type": "uint256"
        }
      ],
      "stateMutability": "view",
      "type": "function"
    },
    {
      "inputs": [],
      "name": "candidatesCount",
      "outputs": [
        {
          "internalType": "uint256",
          "name": "",
          "type": "uint256"
        }
      ],
      "stateMutability": "view",
      "type": "function"
    },
    {
      "inputs": [
        {
          "internalType": "address",
          "name": "",
          "type": "address"
        }
      ],
      "name": "hasVoted",
      "outputs": [
        {
          "internalType": "bool",
          "name": "",
          "type": "bool"
        }
      ],
      "stateMutability": "view",
      "type": "function"
    },
    {
      "inputs": [
        {
          "internalType": "address",
          "name": "",
          "type": "address"
        }
      ],
      "name": "registeredVoters",
      "outputs": [
        {
          "internalType": "bool",
          "name": "",
          "type": "bool"
        }
      ],
      "stateMutability": "view",
      "type": "function"
    },
    {
      "inputs": [],
      "name": "votingDeadline",
      "outputs": [
        {
          "internalType": "uint256",
          "name": "",
          "type": "uint256"
        }
      ],
      "stateMutability": "view",
      "type": "function"
    },
    {
      "inputs": [
        {
          "internalType": "string",
          "name": "_name",
          "type": "string"
        }
      ],
      "name": "addCandidate",
      "outputs": [],
      "stateMutability": "nonpayable",
      "type": "function"
    },
    {
      "inputs": [
        {
          "internalType": "address",
          "name": "_voter",
          "type": "address"
        }
      ],
      "name": "registerVoter",
      "outputs": [],
      "stateMutability": "nonpayable",
      "type": "function"
    },
    {
      "inputs": [
        {
          "internalType": "uint256",
          "name": "_candidateId",
          "type": "uint256"
        }
      ],
      "name": "vote",
      "outputs": [],
      "stateMutability": "nonpayable",
      "type": "function"
    },
    {
      "inputs": [],
      "name": "getRemainingTime",
      "outputs": [
        {
          "internalType": "uint256",
          "name": "",
          "type": "uint256"
        }
      ],
      "stateMutability": "view",
      "type": "function"
    }
  ],
  "bytecode": "0x60806040523480156200001157600080fd5b50604051620011de380380620011de8339818101604052810190620000379190620000e0565b336000806101000a81548173ffffffffffffffffffffffffffffffffffffffff021916908373ffffffffffffffffffffffffffffffffffffffff160217905550603c8162000086919062000141565b42620000939190620001a2565b60018190555050620001ff565b600080fd5b6000819050919050565b620000ba81620000a5565b8114620000c657600080fd5b50565b600081519050620000da81620000af565b92915050565b600060208284031215620000f957620000f8620000a0565b5b60006200010984828501620000c9565b91505092915050565b7f4e487b7100000000000000000000000000000000000000000000000000000000600052601160045260246000fd5b60006200014e82620000a5565b91506200015b83620000a5565b9250817fffffffffffffffffffffffffffffffffffffffffffffffffffffffffffffffff048311821515161562000197576200019662000112565b5b828202905092915050565b6000620001af82620000a5565b9150620001bc83620000a5565b9250827fffffffffffffffffffffffffffffffffffffffffffffffffffffffffffffffff03821115620001f457620001f362000112565b5b828201905092915050565b610fcf806200020f6000396000f3fe608060405234801561001057600080fd5b506004361061009e5760003560e01c806338db6dd31161006657806338db6dd31461015d578063462e91ec14610179578063a9ff6df114610195578063efb98bcf146101c5578063f851a440146101e35761009e565b80630121b93f146100a3578063036ee850146100bf57806309eef43e146100dd5780632d35a8a21461010d5780633477ee2e1461012b575b600080fd5b6100bd60048036038101906100b891906108b5565b610201565b005b6100c7610485565b6040516100d491906108f1565b60405180910390f35b6100f760048036038101906100f2919061096a565b61048b565b60405161010491906109b2565b60405180910390f35b6101156104ab565b60405161012291906108f1565b60405180910390f35b610145600480360381019061014091906108b5565b6104b1565b60405161015493929190610a66565b60405180910390f35b6101776004803603810190610172919061096a565b610563565b005b610193600480360381019061018e9190610bd9565b61064c565b005b6101af60048036038101906101aa919061096a565b61075c565b6040516101bc91906109b2565b60405180910390f35b6101cd61077c565b6040516101da91906108f1565b60405180910390f35b6101eb6107a4565b6040516101f89190610c31565b60405180910390f35b600154421115610246576040517f08c379a000000000000000000000000000000000000000000000000000000000815260040161023d90610c98565b60405180910390fd5b600260003373ffffffffffffffffffffffffffffffffffffffff1673ffffffffffffffffffffffffffffffffffffffff16815260200190815260200160002060009054906101000a900460ff166102d2576040517f08c379a00000000000000000000000000000000000000000000000000000000081526004016102c990610d04565b60405180910390fd5b600360003373ffffffffffffffffffffffffffffffffffffffff1673ffffffffffffffffffffffffffffffffffffffff16815260200190815260200160002060009054906101000a900460ff161561035f576040517f08c379a000000000000000000000000000000000000000000000000000000000815260040161035690610d70565b60405180910390fd5b60008111801561037157506005548111155b6103b0576040517f08c379a00000000000000000000000000000000000000000000000000000000081526004016103a790610ddc565b60405180910390fd5b6001600360003373ffffffffffffffffffffffffffffffffffffffff1673ffffffffffffffffffffffffffffffffffffffff16815260200190815260200160002060006101000a81548160ff02191690831515021790555060046000828152602001908152602001600020600201600081548092919061042f90610e2b565b91905055503373ffffffffffffffffffffffffffffffffffffffff167f4d99b957a2bc29a30ebd96a7be8e68fe50a3c701db28a91436490b7d53870ca48260405161047a91906108f1565b60405180910390a250565b60015481565b60036020528060005260406000206000915054906101000a900460ff1681565b60055481565b60046020528060005260406000206000915090508060000154908060010180546104da90610ea2565b80601f016020809104026020016040519081016040528092919081815260200182805461050690610ea2565b80156105535780601f1061052857610100808354040283529160200191610553565b820191906000526020600020905b81548152906001019060200180831161053657829003601f168201915b5050505050908060020154905083565b60008054906101000a900473ffffffffffffffffffffffffffffffffffffffff1673ffffffffffffffffffffffffffffffffffffffff163373ffffffffffffffffffffffffffffffffffffffff16146105f1576040517f08c379a00000000000000000000000000000000000000000000000000000000081526004016105e890610f45565b60405180910390fd5b6001600260008373ffffffffffffffffffffffffffffffffffffffff1673ffffffffffffffffffffffffffffffffffffffff16815260200190815260200160002060006101000a81548160ff02191690831515021790555050565b60008054906101000a900473ffffffffffffffffffffffffffffffffffffffff1673ffffffffffffffffffffffffffffffffffffffff163373ffffffffffffffffffffffffffffffffffffffff16146106da576040517f08c379a00000000000000000000000000000000000000000000000000000000081526004016106d190610f45565b60405180910390fd5b600560008154809291906106ed90610e2b565b919050555060405180606001604052806005548152602001828152602001600081525060046000600554815260200190815260200160002060008201518160000155602082015181600101908051906020019061074b9291906107c8565b506040820151816002015590505050565b60026020528060005260406000206000915054906101000a900460ff1681565b6000600154421061079057600090506107a1565b4260015461079e9190610f65565b90505b90565b60008054906101000a900473ffffffffffffffffffffffffffffffffffffffff1681565b8280546107d490610ea2565b90600052602060002090601f0160209004810192826107f6576000855561083d565b82601f1061080f57805160ff191683800117855561083d565b8280016001018555821561083d579182015b8281111561083c578251825591602001919060010190610821565b5b50905061084a919061084e565b5090565b5b8082111561086757600081600090555060010161084f565b5090565b6000604051905090565b600080fd5b600080fd5b6000819050919050565b6108928161087f565b811461089d57600080fd5b50565b6000813590506108af81610889565b92915050565b6000602082840312156108cb576108ca610875565b5b60006108d9848285016108a0565b91505092915050565b6108eb8161087f565b82525050565b600060208201905061090660008301846108e2565b92915050565b600073ffffffffffffffffffffffffffffffffffffffff82169050919050565b60006109378261090c565b9050919050565b6109478161092c565b811461095257600080fd5b50565b6000813590506109648161093e565b92915050565b6000602082840312156109805761097f610875565b5b600061098e84828501610955565b91505092915050565b60008115159050919050565b6109ac81610997565b82525050565b60006020820190506109c760008301846109a3565b92915050565b600081519050919050565b600082825260208201905092915050565b60005b83811015610a075780820151818401526020810190506109ec565b83811115610a16576000848401525b50505050565b6000601f19601f8301169050919050565b6000610a38826109cd565b610a4281856109d8565b9350610a528185602086016109e9565b610a5b81610a1c565b840191505092915050565b6000606082019050610a7b60008301866108e2565b8181036020830152610a8d8185610a2d565b9050610a9c60408301846108e2565b949350505050565b600080fd5b600080fd5b7f4e487b7100000000000000000000000000000000000000000000000000000000600052604160045260246000fd5b610ae682610a1c565b810181811067ffffffffffffffff82111715610b0557610b04610aae565b5b80604052505050565b6000610b1861086b565b9050610b248282610add565b919050565b600067ffffffffffffffff821115610b4457610b43610aae565b5b610b4d82610a1c565b9050602081019050919050565b82818337600083830152505050565b6000610b7c610b7784610b29565b610b0e565b905082815260208101848484011115610b9857610b97610aa9565b5b610ba3848285610b5a565b509392505050565b600082601f830112610bc057610bbf610aa4565b5b8135610bd0848260208601610b69565b91505092915050565b600060208284031215610bef57610bee610875565b5b600082013567ffffffffffffffff811115610c0d57610c0c61087a565b5b610c1984828501610bab565b91505092915050565b610c2b8161092c565b82525050565b6000602082019050610c466000830184610c22565b92915050565b7f566f74696e6720706572696f642068617320656e646564000000000000000000600082015250565b6000610c826017836109d8565b9150610c8d82610c4c565b602082019050919050565b60006020820190508181036000830152610cb181610c75565b9050919050565b7f596f7520617265206e6f74207265676973746572656420746f20766f74650000600082015250565b6000610cee601e836109d8565b9150610cf982610cb8565b602082019050919050565b60006020820190508181036000830152610d1d81610ce1565b9050919050565b7f596f75206861766520616c726561647920766f74656400000000000000000000600082015250565b6000610d5a6016836109d8565b9150610d6582610d24565b602082019050919050565b60006020820190508181036000830152610d8981610d4d565b9050919050565b7f496e76616c69642063616e646964617465000000000000000000000000000000600082015250565b6000610dc66011836109d8565b9150610dd182610d90565b602082019050919050565b60006020820190508181036000830152610df581610db9565b9050919050565b7f4e487b7100000000000000000000000000000000000000000000000000000000600052601160045260246000fd5b6000610e368261087f565b91507fffffffffffffffffffffffffffffffffffffffffffffffffffffffffffffffff8203610e6857610e67610dfc565b5b600182019050919050565b7f4e487b7100000000000000000000000000000000000000000000000000000000600052602260045260246000fd5b60006002820490506001821680610eba57607f821691505b602082108103610ecd57610ecc610e73565b5b50919050565b7f4f6e6c792061646d696e2063616e20706572666f726d2074686973206163746960008201527f6f6e000000000000000000000000000000000000000000000000000000000000602082015250565b6000610f2f6022836109d8565b9150610f3a82610ed3565b604082019050919050565b60006020820190508181036000830152610f5e81610f22565b9050919050565b6000610f708261087f565b9150610f7b8361087f565b925082821015610f8e57610f8d610dfc565b5b82820390509291505056fea26469706673582212207edf0c88b5dd086d9ef83c1105d33ef0bf43ce8109c953c9d85cea53719c301464736f6c634300080e0033",
  "immutableReferences": {},
  "source": "// SPDX-License-Identifier: MIT\r\npragma solidity ^0.8.14;\r\n\r\ncontract Voting {\r\n    address public admin;\r\n    uint public votingDeadline;\r\n\r\n    struct Candidate {\r\n        uint id;\r\n        string name;\r\n        uint voteCount;\r\n    }\r\n\r\n    mapping(address => bool) public registeredVoters;\r\n    mapping(address => bool) public hasVoted;\r\n    mapping(uint => Candidate) public candidates;\r\n    uint public candidatesCount;\r\n\r\n    event Voted(address indexed voter, uint candidateId);\r\n\r\n    constructor(uint _durationInMinutes) {\r\n        admin = msg.sender;\r\n        votingDeadline = block.timestamp + (_durationInMinutes * 1 minutes);\r\n    }\r\n\r\n    modifier onlyAdmin() {\r\n        require(msg.sender == admin, \"Only admin can perform this action\");\r\n        _;\r\n    }\r\n\r\n    modifier onlyBeforeDeadline() {\r\n        require(block.timestamp <= votingDeadline, \"Voting period has ended\");\r\n        _;\r\n    }\r\n\r\n    function addCandidate(string memory _name) public onlyAdmin {\r\n        candidatesCount++;\r\n        candidates[candidatesCount] = Candidate(candidatesCount, _name, 0);\r\n    }\r\n\r\n    function registerVoter(address _voter) public onlyAdmin {\r\n        registeredVoters[_voter] = true;\r\n    }\r\n\r\n    function vote(uint _candidateId) public onlyBeforeDeadline {\r\n        require(registeredVoters[msg.sender], \"You are not registered to vote\");\r\n        require(!hasVoted[msg.sender], \"You have already voted\");\r\n        require(_candidateId > 0 && _candidateId <= candidatesCount, \"Invalid candidate\");\r\n\r\n        hasVoted[msg.sender] = true;\r\n        candidates[_candidateId].voteCount++;\r\n\r\n        emit Voted(msg.sender, _candidateId);\r\n    }\r\n\r\n    function getRemainingTime() public view returns (uint) {\r\n        if (block.timestamp >= votingDeadline) return 0;\r\n        return votingDeadline - block.timestamp;\r\n    }\r\n}\r\n",
  "sourcePath": "C:\\Users\\TARANG\\IdeaProjects\\Final work\\voting-dapp\\contracts\\Voting.sol",
  "compiler": {
    "name": "solc",
    "version": "0.8.14+commit.80d49f37.Emscripten.clang"
  },
  "schemaVersion": "3.4.16",
  "updatedAt": "2025-04-29T09:17:00.210Z",
  "devdoc": {
    "kind": "dev",
    "methods": {},
    "version": 1
  },
  "userdoc": {
    "kind": "user",
    "methods": {},
    "version": 1
  }
}